{
  "abi": [
    {
      "inputs": [
        {
          "internalType": "address",
          "name": "_positionManager",
          "type": "address"
        },
        {
          "internalType": "address",
          "name": "_swapRouter",
          "type": "address"
        }
      ],
      "stateMutability": "nonpayable",
      "type": "constructor"
    },
    {
      "inputs": [],
      "name": "aToken",
      "outputs": [
        {
          "internalType": "address",
          "name": "",
          "type": "address"
        }
      ],
      "stateMutability": "view",
      "type": "function"
    },
    {
      "inputs": [
        {
          "internalType": "uint8",
          "name": "asset",
          "type": "uint8"
        },
        {
          "internalType": "uint16",
          "name": "amount",
          "type": "uint16"
        },
        {
          "internalType": "uint256",
          "name": "strategyID",
          "type": "uint256"
        }
      ],
      "name": "deposit",
      "outputs": [],
      "stateMutability": "nonpayable",
      "type": "function"
    },
    {
      "inputs": [],
      "name": "getStrategies",
      "outputs": [
        {
          "components": [
            {
              "internalType": "uint256",
              "name": "strategyID",
              "type": "uint256"
            },
            {
              "internalType": "bytes32",
              "name": "hash",
              "type": "bytes32"
            },
            {
              "internalType": "address",
              "name": "asset1",
              "type": "address"
            },
            {
              "internalType": "address",
              "name": "asset2",
              "type": "address"
            },
            {
              "internalType": "uint256",
              "name": "stake",
              "type": "uint256"
            },
            {
              "internalType": "uint256",
              "name": "maxAllowedStrategyUse",
              "type": "uint256"
            },
            {
              "internalType": "address",
              "name": "creator",
              "type": "address"
            },
            {
              "internalType": "address",
              "name": "public_share_secret",
              "type": "address"
            },
            {
              "internalType": "uint256",
              "name": "lastExecuted",
              "type": "uint256"
            },
            {
              "internalType": "uint256",
              "name": "capitalDeposited1",
              "type": "uint256"
            },
            {
              "internalType": "uint256",
              "name": "capitalDeposited2",
              "type": "uint256"
            },
            {
              "internalType": "uint256",
              "name": "capitalAllocated1",
              "type": "uint256"
            },
            {
              "internalType": "uint256",
              "name": "capitalAllocated2",
              "type": "uint256"
            }
          ],
          "internalType": "struct StrategyRegistry.Strategy[]",
          "name": "",
          "type": "tuple[]"
        }
      ],
      "stateMutability": "view",
      "type": "function"
    },
    {
      "inputs": [
        {
          "internalType": "uint256",
          "name": "strategyID",
          "type": "uint256"
        }
      ],
      "name": "getStrategyByID",
      "outputs": [
        {
          "components": [
            {
              "internalType": "uint256",
              "name": "strategyID",
              "type": "uint256"
            },
            {
              "internalType": "bytes32",
              "name": "hash",
              "type": "bytes32"
            },
            {
              "internalType": "address",
              "name": "asset1",
              "type": "address"
            },
            {
              "internalType": "address",
              "name": "asset2",
              "type": "address"
            },
            {
              "internalType": "uint256",
              "name": "stake",
              "type": "uint256"
            },
            {
              "internalType": "uint256",
              "name": "maxAllowedStrategyUse",
              "type": "uint256"
            },
            {
              "internalType": "address",
              "name": "creator",
              "type": "address"
            },
            {
              "internalType": "address",
              "name": "public_share_secret",
              "type": "address"
            },
            {
              "internalType": "uint256",
              "name": "lastExecuted",
              "type": "uint256"
            },
            {
              "internalType": "uint256",
              "name": "capitalDeposited1",
              "type": "uint256"
            },
            {
              "internalType": "uint256",
              "name": "capitalDeposited2",
              "type": "uint256"
            },
            {
              "internalType": "uint256",
              "name": "capitalAllocated1",
              "type": "uint256"
            },
            {
              "internalType": "uint256",
              "name": "capitalAllocated2",
              "type": "uint256"
            }
          ],
          "internalType": "struct StrategyRegistry.Strategy",
          "name": "",
          "type": "tuple"
        }
      ],
      "stateMutability": "view",
      "type": "function"
    },
    {
      "inputs": [],
      "name": "pool",
      "outputs": [
        {
          "internalType": "contract IPool",
          "name": "",
          "type": "address"
        }
      ],
      "stateMutability": "view",
      "type": "function"
    },
    {
      "inputs": [],
      "name": "positionManager",
      "outputs": [
        {
          "internalType": "address",
          "name": "",
          "type": "address"
        }
      ],
      "stateMutability": "view",
      "type": "function"
    },
    {
      "inputs": [
        {
          "internalType": "uint256",
          "name": "strategyID",
          "type": "uint256"
        },
        {
          "internalType": "uint8",
          "name": "v",
          "type": "uint8"
        },
        {
          "internalType": "bytes32",
          "name": "r",
          "type": "bytes32"
        },
        {
          "internalType": "bytes32",
          "name": "s",
          "type": "bytes32"
        }
      ],
      "name": "registerNodeRunner",
      "outputs": [],
      "stateMutability": "nonpayable",
      "type": "function"
    },
    {
      "inputs": [
        {
          "internalType": "bytes32",
          "name": "hash",
          "type": "bytes32"
        },
        {
          "internalType": "address",
          "name": "asset1",
          "type": "address"
        },
        {
          "internalType": "address",
          "name": "asset2",
          "type": "address"
        },
        {
          "internalType": "uint256",
          "name": "stake",
          "type": "uint256"
        },
        {
          "internalType": "address",
          "name": "public_share_secret",
          "type": "address"
        }
      ],
      "name": "registerStrategy",
      "outputs": [],
      "stateMutability": "nonpayable",
      "type": "function"
    },
    {
      "inputs": [
        {
          "internalType": "uint256",
          "name": "strategyID",
          "type": "uint256"
        },
        {
          "internalType": "uint256",
          "name": "amount0Desired",
          "type": "uint256"
        },
        {
          "internalType": "uint256",
          "name": "amount1Desired",
          "type": "uint256"
        }
      ],
      "name": "runStrategy",
      "outputs": [],
      "stateMutability": "nonpayable",
      "type": "function"
    },
    {
      "inputs": [],
      "name": "stakingToken",
      "outputs": [
        {
          "internalType": "address",
          "name": "",
          "type": "address"
        }
      ],
      "stateMutability": "view",
      "type": "function"
    },
    {
      "inputs": [],
      "name": "swapRouter",
      "outputs": [
        {
          "internalType": "address",
          "name": "",
          "type": "address"
        }
      ],
      "stateMutability": "view",
      "type": "function"
    },
    {
      "inputs": [],
      "name": "usdc",
      "outputs": [
        {
          "internalType": "contract IERC20",
          "name": "",
          "type": "address"
        }
      ],
      "stateMutability": "view",
      "type": "function"
    },
    {
      "inputs": [
        {
          "internalType": "uint8",
          "name": "asset",
          "type": "uint8"
        },
        {
          "internalType": "uint16",
          "name": "amount",
          "type": "uint16"
        },
        {
          "internalType": "uint256",
          "name": "strategyID",
          "type": "uint256"
        }
      ],
      "name": "withdraw",
      "outputs": [],
      "stateMutability": "nonpayable",
      "type": "function"
    }
  ],
  "bytecode": {
    "object": "0x6080604052600480546001600160a01b031990811673a0b86991c6218b36c1d19d4a2e9eb0ce3606eb48179091556005805482167398c23e9d8f34fefb1b7bd6a91b7ff122f4e16f5c179055600680549091167387870bca3f3fd6335c3f4ce8392d69350b4fa4e21790556000600a5534801561007b57600080fd5b50604051620016d9380380620016d983398101604081905261009c916100e9565b600780546001600160a01b039384166001600160a01b0319918216179091556008805492909316911617905561011c565b80516001600160a01b03811681146100e457600080fd5b919050565b600080604083850312156100fc57600080fd5b610105836100cd565b9150610113602084016100cd565b90509250929050565b6115ad806200012c6000396000f3fe608060405234801561001057600080fd5b50600436106100cf5760003560e01c80638a67ccee1161008c578063b49a60bb11610066578063b49a60bb146101ab578063c31c9c07146101c0578063de23a066146101d3578063e82381161461020b57600080fd5b80638a67ccee146101655780638b03ea0e14610178578063a0c1f15e1461019857600080fd5b806316f0115b146100d457806320778656146101045780633e413bee146101195780635c407f8e1461012c57806372f702f31461013f578063791b98bc14610152575b600080fd5b6006546100e7906001600160a01b031681565b6040516001600160a01b0390911681526020015b60405180910390f35b61011761011236600461103f565b61021e565b005b6004546100e7906001600160a01b031681565b61011761013a36600461103f565b610487565b6009546100e7906001600160a01b031681565b6007546100e7906001600160a01b031681565b61011761017336600461109c565b61064d565b61018b6101863660046110f3565b6108bc565b6040516100fb91906111d2565b6005546100e7906001600160a01b031681565b6101b3610978565b6040516100fb91906111e7565b6008546100e7906001600160a01b031681565b6101176101e1366004611236565b5050506000908152600160208181526040808420338552909152909120805460ff19169091179055565b610117610219366004611271565b610aee565b60008181526003602052604081209060ff8516600103610270575060028101546009820180546001600160a01b039092169161ffff861691906000906102659084906112b3565b909155506102a39050565b506003810154600a820180546001600160a01b039092169161ffff8616919060009061029d9084906112b3565b90915550505b6040516323b872dd60e01b815233600482015230602482015261ffff851660448201526001600160a01b038216906323b872dd906064016020604051808303816000875af11580156102f9573d6000803e3d6000fd5b505050506040513d601f19601f8201168201806040525081019061031d91906112cb565b5060065460405163095ea7b360e01b81526001600160a01b03918216600482015261ffff861660248201529082169063095ea7b3906044016020604051808303816000875af1158015610374573d6000803e3d6000fd5b505050506040513d601f19601f8201168201806040525081019061039891906112cb565b5060065460405163e8eda9df60e01b81526001600160a01b03838116600483015261ffff87166024830181905230604484015260648301529091169063e8eda9df90608401600060405180830381600087803b1580156103f757600080fd5b505af115801561040b573d6000803e3d6000fd5b505060028054600181019091557f405787fa12a823e0f2b7631cc41b3ba8828b3321ca811111fa75cd3aa3bb5ace01859055505060008381526020818152604080832033845282528083206001600160a01b03851684529091528120805461ffff8716929061047b9084906112b3565b90915550505050505050565b60008181526003602052604081209060ff85166001036104d9575060028101546009820180546001600160a01b039092169161ffff861691906000906104ce9084906112f4565b9091555061050c9050565b506003810154600a820180546001600160a01b039092169161ffff861691906000906105069084906112f4565b90915550505b60008381526020818152604080832033845282528083206001600160a01b038516845290915290205461ffff851611156105845760405162461bcd60e51b8152602060048201526014602482015273496e73756666696369656e742062616c616e636560601b60448201526064015b60405180910390fd5b60008381526020818152604080832033845282528083206001600160a01b03851684529091528120805461ffff871692906105c09084906112f4565b9091555050600654604051631a4ca37b60e21b81526001600160a01b03838116600483015261ffff87166024830152306044830152909116906369328dec906064016020604051808303816000875af1158015610621573d6000803e3d6000fd5b505050506040513d601f19601f82011682018060405250810190610645919061130b565b505050505050565b6040516323b872dd60e01b8152336004820152306024820152604481018390526001600160a01b038516906323b872dd906064016020604051808303816000875af11580156106a0573d6000803e3d6000fd5b505050506040513d601f19601f820116820180604052508101906106c491906112cb565b6106cd57600080fd5b6000604051806101a001604052806002805490508152602001878152602001866001600160a01b03168152602001856001600160a01b0316815260200184815260200160008152602001336001600160a01b03168152602001836001600160a01b03168152602001600081526020016000815260200160008152602001600081526020016000815250905080600360006002805490508152602001908152602001600020600082015181600001556020820151816001015560408201518160020160006101000a8154816001600160a01b0302191690836001600160a01b0316021790555060608201518160030160006101000a8154816001600160a01b0302191690836001600160a01b031602179055506080820151816004015560a0820151816005015560c08201518160060160006101000a8154816001600160a01b0302191690836001600160a01b0316021790555060e08201518160070160006101000a8154816001600160a01b0302191690836001600160a01b031602179055506101008201518160080155610120820151816009015561014082015181600a015561016082015181600b015561018082015181600c0155905050600281600001519080600181540180825580915050600190039060005260206000200160009091909190915055505050505050565b6108c4610f9a565b5060009081526003602081815260409283902083516101a0810185528154815260018201549281019290925260028101546001600160a01b0390811694830194909452918201548316606082015260048201546080820152600582015460a08201526006820154831660c0820152600782015490921660e083015260088101546101008301526009810154610120830152600a810154610140830152600b810154610160830152600c015461018082015290565b60025460609060009067ffffffffffffffff81111561099957610999611324565b6040519080825280602002602001820160405280156109d257816020015b6109bf610f9a565b8152602001906001900390816109b75790505b50905060005b600254811015610ae85760036000600283815481106109f9576109f961133a565b60009182526020808320909101548352828101939093526040918201902081516101a0810183528154815260018201549381019390935260028101546001600160a01b039081169284019290925260038101548216606084015260048101546080840152600581015460a08401526006810154821660c0840152600781015490911660e083015260088101546101008301526009810154610120830152600a810154610140830152600b810154610160830152600c01546101808201528251839083908110610aca57610aca61133a565b60200260200101819052508080610ae090611350565b9150506109d8565b50919050565b600083815260036020818152604080842081516101a081018352815481526001808301548286015260028301546001600160a01b0390811683860152958301548616606083015260048301546080830152600583015460a08301526006830154861660c0830152600783015490951660e082015260088201546101008201526009820154610120820152600a820154610140820152600b820154610160820152600c909101546101808201528785529282528084203385529091529091205460ff16610c0c5760405162461bcd60e51b815260206004820152602760248201527f706c73207265676973746572206e6f646520746f2072756e20746869732073746044820152663930ba32b3bc9760c91b606482015260840161057b565b600a5415610c1a576000600a555b620d89e7196000610c2a82611369565b90506000603c9050858461016001818151610c4591906112b3565b90525061018084018051869190610c5d9083906112b3565b9052506006546040858101519051631a4ca37b60e21b81526001600160a01b039182166004820152602481018990523060448201529116906369328dec906064016020604051808303816000875af1158015610cbd573d6000803e3d6000fd5b505050506040513d601f19601f82011682018060405250810190610ce1919061130b565b506006546060850151604051631a4ca37b60e21b81526001600160a01b039182166004820152602481018890523060448201529116906369328dec906064016020604051808303816000875af1158015610d3f573d6000803e3d6000fd5b505050506040513d601f19601f82011682018060405250810190610d63919061130b565b50604084810151600754915163095ea7b360e01b81526001600160a01b0392831660048201526024810189905291169063095ea7b3906044016020604051808303816000875af1158015610dbb573d6000803e3d6000fd5b505050506040513d601f19601f82011682018060405250810190610ddf91906112cb565b50606084015160075460405163095ea7b360e01b81526001600160a01b0391821660048201526024810188905291169063095ea7b3906044016020604051808303816000875af1158015610e37573d6000803e3d6000fd5b505050506040513d601f19601f82011682018060405250810190610e5b91906112cb565b50600060405180610160016040528086604001516001600160a01b0316815260200186606001516001600160a01b03168152602001610bb862ffffff168152602001838487610eaa919061138b565b610eb491906113d3565b60020b815260200183610ec7818761138b565b610ed191906113d3565b60020b8152602081018990526040810188905260006060820181905260808201523060a082015260c001610f07426103846112b3565b9052600754604051634418b22b60e11b81529192506000918291829182916001600160a01b031690638831645690610f43908890600401611460565b6080604051808303816000875af1158015610f62573d6000803e3d6000fd5b505050506040513d601f19601f82011682018060405250810190610f869190611524565b505050600a55505050505050505050505050565b604051806101a00160405280600081526020016000801916815260200160006001600160a01b0316815260200160006001600160a01b03168152602001600081526020016000815260200160006001600160a01b0316815260200160006001600160a01b0316815260200160008152602001600081526020016000815260200160008152602001600081525090565b803560ff8116811461103a57600080fd5b919050565b60008060006060848603121561105457600080fd5b61105d84611029565b9250602084013561ffff8116811461107457600080fd5b929592945050506040919091013590565b80356001600160a01b038116811461103a57600080fd5b600080600080600060a086880312156110b457600080fd5b853594506110c460208701611085565b93506110d260408701611085565b9250606086013591506110e760808701611085565b90509295509295909350565b60006020828403121561110557600080fd5b5035919050565b8051825260208101516020830152604081015161113460408401826001600160a01b03169052565b50606081015161114f60608401826001600160a01b03169052565b506080810151608083015260a081015160a083015260c081015161117e60c08401826001600160a01b03169052565b5060e081015161119960e08401826001600160a01b03169052565b50610100818101519083015261012080820151908301526101408082015190830152610160808201519083015261018090810151910152565b6101a081016111e1828461110c565b92915050565b6020808252825182820181905260009190848201906040850190845b8181101561122a5761121683855161110c565b928401926101a09290920191600101611203565b50909695505050505050565b6000806000806080858703121561124c57600080fd5b8435935061125c60208601611029565b93969395505050506040820135916060013590565b60008060006060848603121561128657600080fd5b505081359360208301359350604090920135919050565b634e487b7160e01b600052601160045260246000fd5b600082198211156112c6576112c661129d565b500190565b6000602082840312156112dd57600080fd5b815180151581146112ed57600080fd5b9392505050565b6000828210156113065761130661129d565b500390565b60006020828403121561131d57600080fd5b5051919050565b634e487b7160e01b600052604160045260246000fd5b634e487b7160e01b600052603260045260246000fd5b6000600182016113625761136261129d565b5060010190565b60008160020b627fffff1981036113825761138261129d565b60000392915050565b60008160020b8360020b806113b057634e487b7160e01b600052601260045260246000fd5b627fffff198214600019821416156113ca576113ca61129d565b90059392505050565b60008160020b8360020b627fffff6000821360008413838304851182821616156113ff576113ff61129d565b627fffff19600085128281168783058712161561141e5761141e61129d565b6000871292508582058712848416161561143a5761143a61129d565b858505871281841616156114505761145061129d565b5050509290910295945050505050565b81516001600160a01b031681526101608101602083015161148c60208401826001600160a01b03169052565b5060408301516114a3604084018262ffffff169052565b5060608301516114b8606084018260020b9052565b5060808301516114cd608084018260020b9052565b5060a083015160a083015260c083015160c083015260e083015160e083015261010080840151818401525061012080840151611513828501826001600160a01b03169052565b505061014092830151919092015290565b6000806000806080858703121561153a57600080fd5b8451935060208501516fffffffffffffffffffffffffffffffff8116811461156157600080fd5b604086015160609096015194979096509250505056fea264697066735822122005314b8027f0b21e5fd4426627bb465f820e7693d428ba46db1504d0f1021d5764736f6c634300080f0033",
    "linkReferences": {}
  },
  "methodIdentifiers": {
    "aToken()": "a0c1f15e",
    "deposit(uint8,uint16,uint256)": "20778656",
    "getStrategies()": "b49a60bb",
    "getStrategyByID(uint256)": "8b03ea0e",
    "pool()": "16f0115b",
    "positionManager()": "791b98bc",
    "registerNodeRunner(uint256,uint8,bytes32,bytes32)": "de23a066",
    "registerStrategy(bytes32,address,address,uint256,address)": "8a67ccee",
    "runStrategy(uint256,uint256,uint256)": "e8238116",
    "stakingToken()": "72f702f3",
    "swapRouter()": "c31c9c07",
    "usdc()": "3e413bee",
    "withdraw(uint8,uint16,uint256)": "5c407f8e"
  },
  "id": 30
}