{
  "abi": [
    {
      "inputs": [
        {
          "internalType": "address",
          "name": "token",
          "type": "address"
        },
        {
          "internalType": "address",
          "name": "account",
          "type": "address"
        }
      ],
      "name": "balanceOf",
      "outputs": [
        {
          "internalType": "uint256",
          "name": "",
          "type": "uint256"
        }
      ],
      "stateMutability": "view",
      "type": "function"
    },
    {
      "inputs": [
        {
          "internalType": "address",
          "name": "token",
          "type": "address"
        },
        {
          "internalType": "uint256",
          "name": "amount",
          "type": "uint256"
        }
      ],
      "name": "deposit",
      "outputs": [],
      "stateMutability": "nonpayable",
      "type": "function"
    },
    {
      "inputs": [
        {
          "internalType": "address",
          "name": "token",
          "type": "address"
        },
        {
          "internalType": "uint256",
          "name": "amount",
          "type": "uint256"
        }
      ],
      "name": "withdraw",
      "outputs": [],
      "stateMutability": "nonpayable",
      "type": "function"
    }
  ],
  "bytecode": {
    "object": "0x608060405234801561001057600080fd5b50610516806100206000396000f3fe608060405234801561001057600080fd5b50600436106100415760003560e01c806347e7ef2414610046578063f3fef3a31461005b578063f7888aec1461006e575b600080fd5b6100596100543660046103d7565b6100ab565b005b6100596100693660046103d7565b61024e565b61009961007c366004610403565b6001600160a01b0316600090815260208190526040902054919050565b60405190815260200160405180910390f35b6040516323b872dd60e01b8152336004820152306024820152604481018290526001600160a01b038316906323b872dd906064016020604051808303816000875af11580156100fe573d6000803e3d6000fd5b505050506040513d601f19601f82011682018060405250810190610122919061043c565b50816001600160a01b031663095ea7b361013a610356565b6040516001600160e01b031960e084901b1681526001600160a01b039091166004820152602481018490526044016020604051808303816000875af1158015610187573d6000803e3d6000fd5b505050506040513d601f19601f820116820180604052508101906101ab919061043c565b506101b4610356565b60405163e8eda9df60e01b81526001600160a01b0384811660048301526024820184905230604483015260006064830152919091169063e8eda9df90608401600060405180830381600087803b15801561020d57600080fd5b505af1158015610221573d6000803e3d6000fd5b5050336000908152602081905260408120805485945090925061024590849061047b565b90915550505050565b336000908152602081905260409020548111156102a95760405162461bcd60e51b815260206004820152601560248201527424b739bab33334b1b4b2b73a103130b630b731b29760591b604482015260640160405180910390fd5b33600090815260208190526040812080548392906102c8908490610493565b909155506102d69050610356565b604051631a4ca37b60e21b81526001600160a01b0384811660048301526024820184905233604483015291909116906369328dec906064016020604051808303816000875af115801561032d573d6000803e3d6000fd5b505050506040513d601f19601f8201168201806040525081019061035191906104aa565b505050565b6000806001600160a01b031663026b1d5f6040518163ffffffff1660e01b8152600401602060405180830381865afa158015610396573d6000803e3d6000fd5b505050506040513d601f19601f820116820180604052508101906103ba91906104c3565b905090565b6001600160a01b03811681146103d457600080fd5b50565b600080604083850312156103ea57600080fd5b82356103f5816103bf565b946020939093013593505050565b6000806040838503121561041657600080fd5b8235610421816103bf565b91506020830135610431816103bf565b809150509250929050565b60006020828403121561044e57600080fd5b8151801515811461045e57600080fd5b9392505050565b634e487b7160e01b600052601160045260246000fd5b6000821982111561048e5761048e610465565b500190565b6000828210156104a5576104a5610465565b500390565b6000602082840312156104bc57600080fd5b5051919050565b6000602082840312156104d557600080fd5b815161045e816103bf56fea2646970667358221220cb663bc5700ab64258a1598460fb03358d99a81ea4daca54537ff5b49166da4e64736f6c634300080f0033",
    "linkReferences": {}
  },
  "methodIdentifiers": {
    "balanceOf(address,address)": "f7888aec",
    "deposit(address,uint256)": "47e7ef24",
    "withdraw(address,uint256)": "f3fef3a3"
  },
  "id": 29
}