{
    "abi": [
        {
            "inputs": [
                {
                    "internalType": "address",
                    "name": "_stakingToken",
                    "type": "address"
                },
                {
                    "internalType": "address",
                    "name": "_positionManager",
                    "type": "address"
                },
                {
                    "internalType": "address",
                    "name": "_swapRouter",
                    "type": "address"
                }
            ],
            "stateMutability": "nonpayable",
            "type": "constructor"
        },
        {
            "inputs": [],
            "name": "aToken",
            "outputs": [
                {
                    "internalType": "address",
                    "name": "",
                    "type": "address"
                }
            ],
            "stateMutability": "view",
            "type": "function"
        },
        {
            "inputs": [
                {
                    "internalType": "address",
                    "name": "token",
                    "type": "address"
                },
                {
                    "internalType": "uint16",
                    "name": "amount",
                    "type": "uint16"
                },
                {
                    "internalType": "uint256",
                    "name": "strategyID",
                    "type": "uint256"
                }
            ],
            "name": "deposit",
            "outputs": [],
            "stateMutability": "nonpayable",
            "type": "function"
        },
        {
            "inputs": [],
            "name": "getStrategies",
            "outputs": [
                {
                    "internalType": "uint256[]",
                    "name": "",
                    "type": "uint256[]"
                }
            ],
            "stateMutability": "view",
            "type": "function"
        },
        {
            "inputs": [
                {
                    "internalType": "uint256",
                    "name": "strategyID",
                    "type": "uint256"
                }
            ],
            "name": "getStrategyByID",
            "outputs": [
                {
                    "components": [
                        {
                            "internalType": "uint256",
                            "name": "strategyID",
                            "type": "uint256"
                        },
                        {
                            "internalType": "bytes32",
                            "name": "hash",
                            "type": "bytes32"
                        },
                        {
                            "internalType": "address",
                            "name": "asset1",
                            "type": "address"
                        },
                        {
                            "internalType": "uint256",
                            "name": "stake",
                            "type": "uint256"
                        },
                        {
                            "internalType": "uint256",
                            "name": "maxAllowedStrategyUse",
                            "type": "uint256"
                        },
                        {
                            "internalType": "address",
                            "name": "creator",
                            "type": "address"
                        },
                        {
                            "internalType": "address",
                            "name": "public_share_secret",
                            "type": "address"
                        },
                        {
                            "internalType": "uint256",
                            "name": "lastExecuted",
                            "type": "uint256"
                        },
                        {
                            "internalType": "uint256",
                            "name": "capitalAllocated",
                            "type": "uint256"
                        }
                    ],
                    "internalType": "struct StrategyRegistry.Strategy",
                    "name": "",
                    "type": "tuple"
                }
            ],
            "stateMutability": "view",
            "type": "function"
        },
        {
            "inputs": [],
            "name": "pool",
            "outputs": [
                {
                    "internalType": "contract IPool",
                    "name": "",
                    "type": "address"
                }
            ],
            "stateMutability": "view",
            "type": "function"
        },
        {
            "inputs": [],
            "name": "positionManager",
            "outputs": [
                {
                    "internalType": "address",
                    "name": "",
                    "type": "address"
                }
            ],
            "stateMutability": "view",
            "type": "function"
        },
        {
            "inputs": [
                {
                    "internalType": "uint256",
                    "name": "strategyID",
                    "type": "uint256"
                },
                {
                    "internalType": "uint8",
                    "name": "v",
                    "type": "uint8"
                },
                {
                    "internalType": "bytes32",
                    "name": "r",
                    "type": "bytes32"
                },
                {
                    "internalType": "bytes32",
                    "name": "s",
                    "type": "bytes32"
                }
            ],
            "name": "registerNodeRunner",
            "outputs": [],
            "stateMutability": "nonpayable",
            "type": "function"
        },
        {
            "inputs": [
                {
                    "internalType": "bytes32",
                    "name": "hash",
                    "type": "bytes32"
                },
                {
                    "internalType": "address",
                    "name": "asset1",
                    "type": "address"
                },
                {
                    "internalType": "uint256",
                    "name": "stake",
                    "type": "uint256"
                },
                {
                    "internalType": "address",
                    "name": "public_share_secret",
                    "type": "address"
                }
            ],
            "name": "registerStrategy",
            "outputs": [],
            "stateMutability": "nonpayable",
            "type": "function"
        },
        {
            "inputs": [
                {
                    "internalType": "uint256",
                    "name": "nodeRunnerID",
                    "type": "uint256"
                },
                {
                    "internalType": "uint256",
                    "name": "strategyID",
                    "type": "uint256"
                },
                {
                    "internalType": "int24",
                    "name": "tickLower",
                    "type": "int24"
                },
                {
                    "internalType": "int24",
                    "name": "tickUpper",
                    "type": "int24"
                },
                {
                    "internalType": "uint256",
                    "name": "portionOfFunds0",
                    "type": "uint256"
                },
                {
                    "internalType": "uint256",
                    "name": "portionOfFunds1",
                    "type": "uint256"
                }
            ],
            "name": "runStrategy",
            "outputs": [],
            "stateMutability": "nonpayable",
            "type": "function"
        },
        {
            "inputs": [],
            "name": "stakingToken",
            "outputs": [
                {
                    "internalType": "address",
                    "name": "",
                    "type": "address"
                }
            ],
            "stateMutability": "view",
            "type": "function"
        },
        {
            "inputs": [],
            "name": "swapRouter",
            "outputs": [
                {
                    "internalType": "address",
                    "name": "",
                    "type": "address"
                }
            ],
            "stateMutability": "view",
            "type": "function"
        },
        {
            "inputs": [],
            "name": "usdc",
            "outputs": [
                {
                    "internalType": "contract IERC20",
                    "name": "",
                    "type": "address"
                }
            ],
            "stateMutability": "view",
            "type": "function"
        },
        {
            "inputs": [
                {
                    "internalType": "address",
                    "name": "token",
                    "type": "address"
                },
                {
                    "internalType": "uint256",
                    "name": "amount",
                    "type": "uint256"
                },
                {
                    "internalType": "uint256",
                    "name": "strategyID",
                    "type": "uint256"
                }
            ],
            "name": "withdraw",
            "outputs": [],
            "stateMutability": "nonpayable",
            "type": "function"
        }
    ],
    "bytecode": {
        "object": "0x6080604052600480546001600160a01b031990811673a0b86991c6218b36c1d19d4a2e9eb0ce3606eb48179091556005805482167398c23e9d8f34fefb1b7bd6a91b7ff122f4e16f5c179055600680549091167387870bca3f3fd6335c3f4ce8392d69350b4fa4e217905534801561007657600080fd5b50604051611071380380611071833981016040819052610095916100f3565b600980546001600160a01b039485166001600160a01b031991821617909155600780549385169382169390931790925560088054919093169116179055610136565b80516001600160a01b03811681146100ee57600080fd5b919050565b60008060006060848603121561010857600080fd5b610111846100d7565b925061011f602085016100d7565b915061012d604085016100d7565b90509250925092565b610f2c806101456000396000f3fe608060405234801561001057600080fd5b50600436106100cf5760003560e01c80637be661bc1161008c578063b49a60bb11610066578063b49a60bb14610275578063b5c5f6721461028a578063c31c9c071461029d578063de23a066146102b057600080fd5b80637be661bc146101655780638b03ea0e14610178578063a0c1f15e1461026257600080fd5b806316f0115b146100d45780633ba0e73f146101045780633e413bee1461011957806367cc1d761461012c57806372f702f31461013f578063791b98bc14610152575b600080fd5b6006546100e7906001600160a01b031681565b6040516001600160a01b0390911681526020015b60405180910390f35b610117610112366004610ac5565b6102e8565b005b6004546100e7906001600160a01b031681565b61011761013a366004610b34565b61059c565b6009546100e7906001600160a01b031681565b6007546100e7906001600160a01b031681565b610117610173366004610b7a565b610719565b610255610186366004610bc0565b6040805161012081018252600080825260208201819052918101829052606081018290526080810182905260a0810182905260c0810182905260e08101829052610100810191909152506000908152600360208181526040928390208351610120810185528154815260018201549281019290925260028101546001600160a01b0390811694830194909452918201546060820152600482015460808201526005820154831660a0820152600682015490921660c0830152600781015460e08301526008015461010082015290565b6040516100fb9190610bd9565b6005546100e7906001600160a01b031681565b61027d610924565b6040516100fb9190610c5d565b610117610298366004610ca1565b61097c565b6008546100e7906001600160a01b031681565b6101176102be366004610cd4565b5050506000908152600160208181526040808420338552909152909120805460ff19169091179055565b6000858152600360208181526040928390208351610120810185528154815260018201549281019290925260028101546001600160a01b0390811694830194909452918201546060820152600482015460808201526005820154831660a08201819052600683015490931660c0820152600782015460e08201526008909101546101008201529033146103d25760405162461bcd60e51b815260206004820152602760248201527f4f6e6c79207468652063726561746f722063616e2072756e20746869732073746044820152663930ba32b3bc9760c91b60648201526084015b60405180910390fd5b600060405180610160016040528083604001516001600160a01b0316815260200183604001516001600160a01b03168152602001610bb862ffffff1681526020018760020b81526020018660020b8152602001670de0b6b3a76400008461010001518761043f9190610d2d565b6104499190610d4c565b8152602001670de0b6b3a7640000846101000151866104689190610d2d565b6104729190610d4c565b8152600060208201819052604082015230606082015260800161049742610384610d6e565b9052600954600754606085015160405163095ea7b360e01b81526001600160a01b0392831660048201526024810191909152929350169063095ea7b3906044016020604051808303816000875af11580156104f6573d6000803e3d6000fd5b505050506040513d601f19601f8201168201806040525081019061051a9190610d86565b50600754604051634418b22b60e11b81526001600160a01b039091169063883164569061054b908490600401610daf565b6080604051808303816000875af115801561056a573d6000803e3d6000fd5b505050506040513d601f19601f8201168201806040525081019061058e9190610e73565b505050505050505050505050565b6040516323b872dd60e01b8152336004820152306024820152604481018390526001600160a01b038416906323b872dd906064016020604051808303816000875af11580156105ef573d6000803e3d6000fd5b505050506040513d601f19601f820116820180604052508101906106139190610d86565b5060408051610120810182526002805480835260208084019889526001600160a01b03978816848601908152606085019788526000608086018181523360a08801908152988b1660c0880190815260e08801838152610100890184815260018089018a558986527f405787fa12a823e0f2b7631cc41b3ba8828b3321ca811111fa75cd3aa3bb5ace8901989098558951855260039687905299909320975188559b519487019490945590519385018054948a166001600160a01b0319958616179055965190840155516004830155925160058201805491871691851691909117905594516006860180549190951692169190911790925551600783015551600890910155565b6000818152600360205260409081902090516323b872dd60e01b815233600482015230602482015261ffff841660448201526001600160a01b038516906323b872dd906064016020604051808303816000875af115801561077e573d6000803e3d6000fd5b505050506040513d601f19601f820116820180604052508101906107a29190610d86565b6107e05760405162461bcd60e51b815260206004820152600f60248201526e151c985b9cd9995c8819985a5b1959608a1b60448201526064016103c9565b60065460405163095ea7b360e01b81526001600160a01b03918216600482015261ffff851660248201529085169063095ea7b3906044016020604051808303816000875af1158015610836573d6000803e3d6000fd5b505050506040513d601f19601f8201168201806040525081019061085a9190610d86565b5060065460405163e8eda9df60e01b81526001600160a01b03868116600483015261ffff86166024830181905230604484015260648301529091169063e8eda9df90608401600060405180830381600087803b1580156108b957600080fd5b505af11580156108cd573d6000803e3d6000fd5b505050508261ffff168160080160008282546108e99190610d6e565b90915550506000828152602081815260408083203384529091528120805461ffff86169290610919908490610d6e565b909155505050505050565b6060600280548060200260200160405190810160405280929190818152602001828054801561097257602002820191906000526020600020905b81548152602001906001019080831161095e575b5050505050905090565b6000818152600360209081526040808320838352818420338552909252909120548311156109e35760405162461bcd60e51b8152602060048201526014602482015273496e73756666696369656e742062616c616e636560601b60448201526064016103c9565b60008281526020818152604080832033845290915281208054859290610a0a908490610ec6565b9250508190555082816008016000828254610a259190610ec6565b9091555050600654604051631a4ca37b60e21b81526001600160a01b03868116600483015260248201869052336044830152909116906369328dec906064016020604051808303816000875af1158015610a83573d6000803e3d6000fd5b505050506040513d601f19601f82011682018060405250810190610aa79190610edd565b5050505050565b8035600281900b8114610ac057600080fd5b919050565b60008060008060008060c08789031215610ade57600080fd5b8635955060208701359450610af560408801610aae565b9350610b0360608801610aae565b92506080870135915060a087013590509295509295509295565b80356001600160a01b0381168114610ac057600080fd5b60008060008060808587031215610b4a57600080fd5b84359350610b5a60208601610b1d565b925060408501359150610b6f60608601610b1d565b905092959194509250565b600080600060608486031215610b8f57600080fd5b610b9884610b1d565b9250602084013561ffff81168114610baf57600080fd5b929592945050506040919091013590565b600060208284031215610bd257600080fd5b5035919050565b6000610120820190508251825260208301516020830152604083015160018060a01b03808216604085015260608501516060850152608085015160808501528060a08601511660a0850152505060c0830151610c4060c08401826001600160a01b03169052565b5060e083015160e083015261010080840151818401525092915050565b6020808252825182820181905260009190848201906040850190845b81811015610c9557835183529284019291840191600101610c79565b50909695505050505050565b600080600060608486031215610cb657600080fd5b610cbf84610b1d565b95602085013595506040909401359392505050565b60008060008060808587031215610cea57600080fd5b84359350602085013560ff81168114610d0257600080fd5b93969395505050506040820135916060013590565b634e487b7160e01b600052601160045260246000fd5b6000816000190483118215151615610d4757610d47610d17565b500290565b600082610d6957634e487b7160e01b600052601260045260246000fd5b500490565b60008219821115610d8157610d81610d17565b500190565b600060208284031215610d9857600080fd5b81518015158114610da857600080fd5b9392505050565b81516001600160a01b0316815261016081016020830151610ddb60208401826001600160a01b03169052565b506040830151610df2604084018262ffffff169052565b506060830151610e07606084018260020b9052565b506080830151610e1c608084018260020b9052565b5060a083015160a083015260c083015160c083015260e083015160e083015261010080840151818401525061012080840151610e62828501826001600160a01b03169052565b505061014092830151919092015290565b60008060008060808587031215610e8957600080fd5b8451935060208501516fffffffffffffffffffffffffffffffff81168114610eb057600080fd5b6040860151606090960151949790965092505050565b600082821015610ed857610ed8610d17565b500390565b600060208284031215610eef57600080fd5b505191905056fea264697066735822122082b55f614e25fa2283f5d2a85de8874e62cf63b4e4b10a45d92236421e8f43a164736f6c634300080f0033",
        "linkReferences": {}
    },
    "methodIdentifiers": {
        "aToken()": "a0c1f15e",
        "deposit(address,uint16,uint256)": "7be661bc",
        "getStrategies()": "b49a60bb",
        "getStrategyByID(uint256)": "8b03ea0e",
        "pool()": "16f0115b",
        "positionManager()": "791b98bc",
        "registerNodeRunner(uint256,uint8,bytes32,bytes32)": "de23a066",
        "registerStrategy(bytes32,address,uint256,address)": "67cc1d76",
        "runStrategy(uint256,uint256,int24,int24,uint256,uint256)": "3ba0e73f",
        "stakingToken()": "72f702f3",
        "swapRouter()": "c31c9c07",
        "usdc()": "3e413bee",
        "withdraw(address,uint256,uint256)": "b5c5f672"
    },
    "id": 30
}