{
    "abi": [
        {
            "inputs": [
                {
                    "internalType": "address",
                    "name": "_positionManager",
                    "type": "address"
                },
                {
                    "internalType": "address",
                    "name": "_swapRouter",
                    "type": "address"
                }
            ],
            "stateMutability": "nonpayable",
            "type": "constructor"
        },
        {
            "inputs": [],
            "name": "aToken",
            "outputs": [
                {
                    "internalType": "address",
                    "name": "",
                    "type": "address"
                }
            ],
            "stateMutability": "view",
            "type": "function"
        },
        {
            "inputs": [
                {
                    "internalType": "uint8",
                    "name": "asset",
                    "type": "uint8"
                },
                {
                    "internalType": "uint16",
                    "name": "amount",
                    "type": "uint16"
                },
                {
                    "internalType": "uint256",
                    "name": "strategyID",
                    "type": "uint256"
                }
            ],
            "name": "deposit",
            "outputs": [],
            "stateMutability": "nonpayable",
            "type": "function"
        },
        {
            "inputs": [],
            "name": "getStrategies",
            "outputs": [
                {
                    "components": [
                        {
                            "internalType": "uint256",
                            "name": "strategyID",
                            "type": "uint256"
                        },
                        {
                            "internalType": "bytes32",
                            "name": "hash",
                            "type": "bytes32"
                        },
                        {
                            "internalType": "address",
                            "name": "asset1",
                            "type": "address"
                        },
                        {
                            "internalType": "address",
                            "name": "asset2",
                            "type": "address"
                        },
                        {
                            "internalType": "uint256",
                            "name": "stake",
                            "type": "uint256"
                        },
                        {
                            "internalType": "uint256",
                            "name": "maxAllowedStrategyUse",
                            "type": "uint256"
                        },
                        {
                            "internalType": "address",
                            "name": "creator",
                            "type": "address"
                        },
                        {
                            "internalType": "address",
                            "name": "public_share_secret",
                            "type": "address"
                        },
                        {
                            "internalType": "uint256",
                            "name": "lastExecuted",
                            "type": "uint256"
                        },
                        {
                            "internalType": "uint256",
                            "name": "capitalDeposited1",
                            "type": "uint256"
                        },
                        {
                            "internalType": "uint256",
                            "name": "capitalDeposited2",
                            "type": "uint256"
                        },
                        {
                            "internalType": "uint256",
                            "name": "capitalAllocated1",
                            "type": "uint256"
                        },
                        {
                            "internalType": "uint256",
                            "name": "capitalAllocated2",
                            "type": "uint256"
                        }
                    ],
                    "internalType": "struct StrategyRegistry.Strategy[]",
                    "name": "",
                    "type": "tuple[]"
                }
            ],
            "stateMutability": "view",
            "type": "function"
        },
        {
            "inputs": [
                {
                    "internalType": "uint256",
                    "name": "strategyID",
                    "type": "uint256"
                }
            ],
            "name": "getStrategyByID",
            "outputs": [
                {
                    "components": [
                        {
                            "internalType": "uint256",
                            "name": "strategyID",
                            "type": "uint256"
                        },
                        {
                            "internalType": "bytes32",
                            "name": "hash",
                            "type": "bytes32"
                        },
                        {
                            "internalType": "address",
                            "name": "asset1",
                            "type": "address"
                        },
                        {
                            "internalType": "address",
                            "name": "asset2",
                            "type": "address"
                        },
                        {
                            "internalType": "uint256",
                            "name": "stake",
                            "type": "uint256"
                        },
                        {
                            "internalType": "uint256",
                            "name": "maxAllowedStrategyUse",
                            "type": "uint256"
                        },
                        {
                            "internalType": "address",
                            "name": "creator",
                            "type": "address"
                        },
                        {
                            "internalType": "address",
                            "name": "public_share_secret",
                            "type": "address"
                        },
                        {
                            "internalType": "uint256",
                            "name": "lastExecuted",
                            "type": "uint256"
                        },
                        {
                            "internalType": "uint256",
                            "name": "capitalDeposited1",
                            "type": "uint256"
                        },
                        {
                            "internalType": "uint256",
                            "name": "capitalDeposited2",
                            "type": "uint256"
                        },
                        {
                            "internalType": "uint256",
                            "name": "capitalAllocated1",
                            "type": "uint256"
                        },
                        {
                            "internalType": "uint256",
                            "name": "capitalAllocated2",
                            "type": "uint256"
                        }
                    ],
                    "internalType": "struct StrategyRegistry.Strategy",
                    "name": "",
                    "type": "tuple"
                }
            ],
            "stateMutability": "view",
            "type": "function"
        },
        {
            "inputs": [],
            "name": "pool",
            "outputs": [
                {
                    "internalType": "contract IPool",
                    "name": "",
                    "type": "address"
                }
            ],
            "stateMutability": "view",
            "type": "function"
        },
        {
            "inputs": [],
            "name": "positionManager",
            "outputs": [
                {
                    "internalType": "address",
                    "name": "",
                    "type": "address"
                }
            ],
            "stateMutability": "view",
            "type": "function"
        },
        {
            "inputs": [
                {
                    "internalType": "uint256",
                    "name": "strategyID",
                    "type": "uint256"
                },
                {
                    "internalType": "uint8",
                    "name": "v",
                    "type": "uint8"
                },
                {
                    "internalType": "bytes32",
                    "name": "r",
                    "type": "bytes32"
                },
                {
                    "internalType": "bytes32",
                    "name": "s",
                    "type": "bytes32"
                }
            ],
            "name": "registerNodeRunner",
            "outputs": [],
            "stateMutability": "nonpayable",
            "type": "function"
        },
        {
            "inputs": [
                {
                    "internalType": "bytes32",
                    "name": "hash",
                    "type": "bytes32"
                },
                {
                    "internalType": "address",
                    "name": "asset1",
                    "type": "address"
                },
                {
                    "internalType": "address",
                    "name": "asset2",
                    "type": "address"
                },
                {
                    "internalType": "uint256",
                    "name": "stake",
                    "type": "uint256"
                },
                {
                    "internalType": "address",
                    "name": "public_share_secret",
                    "type": "address"
                }
            ],
            "name": "registerStrategy",
            "outputs": [],
            "stateMutability": "nonpayable",
            "type": "function"
        },
        {
            "inputs": [
                {
                    "internalType": "uint256",
                    "name": "strategyID",
                    "type": "uint256"
                },
                {
                    "internalType": "int24",
                    "name": "minTick",
                    "type": "int24"
                },
                {
                    "internalType": "int24",
                    "name": "maxTick",
                    "type": "int24"
                },
                {
                    "internalType": "uint256",
                    "name": "amount0Desired",
                    "type": "uint256"
                },
                {
                    "internalType": "uint256",
                    "name": "amount1Desired",
                    "type": "uint256"
                }
            ],
            "name": "runStrategy",
            "outputs": [],
            "stateMutability": "nonpayable",
            "type": "function"
        },
        {
            "inputs": [],
            "name": "stakingToken",
            "outputs": [
                {
                    "internalType": "address",
                    "name": "",
                    "type": "address"
                }
            ],
            "stateMutability": "view",
            "type": "function"
        },
        {
            "inputs": [],
            "name": "swapRouter",
            "outputs": [
                {
                    "internalType": "address",
                    "name": "",
                    "type": "address"
                }
            ],
            "stateMutability": "view",
            "type": "function"
        },
        {
            "inputs": [],
            "name": "usdc",
            "outputs": [
                {
                    "internalType": "contract IERC20",
                    "name": "",
                    "type": "address"
                }
            ],
            "stateMutability": "view",
            "type": "function"
        },
        {
            "inputs": [
                {
                    "internalType": "uint8",
                    "name": "asset",
                    "type": "uint8"
                },
                {
                    "internalType": "uint16",
                    "name": "amount",
                    "type": "uint16"
                },
                {
                    "internalType": "uint256",
                    "name": "strategyID",
                    "type": "uint256"
                }
            ],
            "name": "withdraw",
            "outputs": [],
            "stateMutability": "nonpayable",
            "type": "function"
        }
    ],
    "bytecode": {
        "object": "0x6080604052600480546001600160a01b031990811673a0b86991c6218b36c1d19d4a2e9eb0ce3606eb48179091556005805482167398c23e9d8f34fefb1b7bd6a91b7ff122f4e16f5c179055600680549091167387870bca3f3fd6335c3f4ce8392d69350b4fa4e21790556000600a553480156200007c57600080fd5b50604051620018fe380380620018fe8339810160408190526200009f91620000ee565b600780546001600160a01b039384166001600160a01b0319918216179091556008805492909316911617905562000126565b80516001600160a01b0381168114620000e957600080fd5b919050565b600080604083850312156200010257600080fd5b6200010d83620000d1565b91506200011d60208401620000d1565b90509250929050565b6117c880620001366000396000f3fe608060405234801561001057600080fd5b50600436106100cf5760003560e01c8063791b98bc1161008c578063a0c1f15e11610066578063a0c1f15e146101ab578063b49a60bb146101be578063c31c9c07146101d3578063de23a066146101e657600080fd5b8063791b98bc146101655780638a67ccee146101785780638b03ea0e1461018b57600080fd5b806316f0115b146100d4578063207786561461010457806335451154146101195780633e413bee1461012c5780635c407f8e1461013f57806372f702f314610152575b600080fd5b6006546100e7906001600160a01b031681565b6040516001600160a01b0390911681526020015b60405180910390f35b61011761011236600461122d565b61021e565b005b610117610127366004611285565b610487565b6004546100e7906001600160a01b031681565b61011761014d36600461122d565b610b26565b6009546100e7906001600160a01b031681565b6007546100e7906001600160a01b031681565b6101176101863660046112ea565b610ce7565b61019e610199366004611341565b610f56565b6040516100fb9190611420565b6005546100e7906001600160a01b031681565b6101c6611012565b6040516100fb9190611435565b6008546100e7906001600160a01b031681565b6101176101f4366004611484565b5050506000908152600160208181526040808420338552909152909120805460ff19169091179055565b60008181526003602052604081209060ff8516600103610270575060028101546009820180546001600160a01b039092169161ffff861691906000906102659084906114d5565b909155506102a39050565b506003810154600a820180546001600160a01b039092169161ffff8616919060009061029d9084906114d5565b90915550505b6040516323b872dd60e01b815233600482015230602482015261ffff851660448201526001600160a01b038216906323b872dd906064016020604051808303816000875af11580156102f9573d6000803e3d6000fd5b505050506040513d601f19601f8201168201806040525081019061031d91906114ed565b5060065460405163095ea7b360e01b81526001600160a01b03918216600482015261ffff861660248201529082169063095ea7b3906044016020604051808303816000875af1158015610374573d6000803e3d6000fd5b505050506040513d601f19601f8201168201806040525081019061039891906114ed565b5060065460405163e8eda9df60e01b81526001600160a01b03838116600483015261ffff87166024830181905230604484015260648301529091169063e8eda9df90608401600060405180830381600087803b1580156103f757600080fd5b505af115801561040b573d6000803e3d6000fd5b505060028054600181019091557f405787fa12a823e0f2b7631cc41b3ba8828b3321ca811111fa75cd3aa3bb5ace01859055505060008381526020818152604080832033845282528083206001600160a01b03851684529091528120805461ffff8716929061047b9084906114d5565b90915550505050505050565b600085815260036020818152604080842081516101a081018352815481526001808301548286015260028301546001600160a01b0390811683860152958301548616606083015260048301546080830152600583015460a08301526006830154861660c0830152600783015490951660e082015260088201546101008201526009820154610120820152600a820154610140820152600b820154610160820152600c909101546101808201528985529282528084203385529091529091205460ff166105aa5760405162461bcd60e51b815260206004820152602760248201527f706c73207265676973746572206e6f646520746f2072756e20746869732073746044820152663930ba32b3bc9760c91b60648201526084015b60405180910390fd5b600a54156107ba5760408051608081018252600a54815230602082019081526001600160801b0382840181815260608401828152600754955163fc6f786560e01b81528551600482015293516001600160a01b0390811660248601529151831660448501525190911660648301529192919091169063fc6f78659060840160408051808303816000875af1158015610646573d6000803e3d6000fd5b505050506040513d601f19601f8201168201806040525081019061066a9190611516565b50506040805160a081018252600a5481526001600160801b036020820152600091810182905260608101829052608081016106a7426103846114d5565b905260075460408051630624e65f60e11b81528351600482015260208401516001600160801b0316602482015290830151604482015260608301516064820152608083015160848201529192506001600160a01b031690630c49ccbe9060a40160408051808303816000875af1158015610725573d6000803e3d6000fd5b505050506040513d601f19601f820116820180604052508101906107499190611516565b5050600754600a54604051630852cd8d60e31b81526001600160a01b03909216916342966c68916107809160040190815260200190565b600060405180830381600087803b15801561079a57600080fd5b505af11580156107ae573d6000803e3d6000fd5b50506000600a55505050505b61016081018051603c9185916107d19083906114d5565b905250610180820180518491906107e99083906114d5565b9052506006546040838101519051631a4ca37b60e21b81526001600160a01b039182166004820152602481018790523060448201529116906369328dec906064016020604051808303816000875af1158015610849573d6000803e3d6000fd5b505050506040513d601f19601f8201168201806040525081019061086d919061153a565b506006546060830151604051631a4ca37b60e21b81526001600160a01b039182166004820152602481018690523060448201529116906369328dec906064016020604051808303816000875af11580156108cb573d6000803e3d6000fd5b505050506040513d601f19601f820116820180604052508101906108ef919061153a565b50604082810151600754915163095ea7b360e01b81526001600160a01b0392831660048201526024810187905291169063095ea7b3906044016020604051808303816000875af1158015610947573d6000803e3d6000fd5b505050506040513d601f19601f8201168201806040525081019061096b91906114ed565b50606082015160075460405163095ea7b360e01b81526001600160a01b0391821660048201526024810186905291169063095ea7b3906044016020604051808303816000875af11580156109c3573d6000803e3d6000fd5b505050506040513d601f19601f820116820180604052508101906109e791906114ed565b50600060405180610160016040528084604001516001600160a01b0316815260200184606001516001600160a01b03168152602001610bb862ffffff16815260200183848a610a369190611553565b610a40919061159b565b60020b815260200183610a53818a611553565b610a5d919061159b565b60020b8152602081018790526040810186905260006060820181905260808201523060a082015260c001610a93426103846114d5565b9052600754604051634418b22b60e11b81529192506000918291829182916001600160a01b031690638831645690610acf908890600401611628565b6080604051808303816000875af1158015610aee573d6000803e3d6000fd5b505050506040513d601f19601f82011682018060405250810190610b1291906116ec565b505050600a55505050505050505050505050565b60008181526003602052604081209060ff8516600103610b78575060028101546009820180546001600160a01b039092169161ffff86169190600090610b6d908490611736565b90915550610bab9050565b506003810154600a820180546001600160a01b039092169161ffff86169190600090610ba5908490611736565b90915550505b60008381526020818152604080832033845282528083206001600160a01b038516845290915290205461ffff85161115610c1e5760405162461bcd60e51b8152602060048201526014602482015273496e73756666696369656e742062616c616e636560601b60448201526064016105a1565b60008381526020818152604080832033845282528083206001600160a01b03851684529091528120805461ffff87169290610c5a908490611736565b9091555050600654604051631a4ca37b60e21b81526001600160a01b03838116600483015261ffff87166024830152306044830152909116906369328dec906064016020604051808303816000875af1158015610cbb573d6000803e3d6000fd5b505050506040513d601f19601f82011682018060405250810190610cdf919061153a565b505050505050565b6040516323b872dd60e01b8152336004820152306024820152604481018390526001600160a01b038516906323b872dd906064016020604051808303816000875af1158015610d3a573d6000803e3d6000fd5b505050506040513d601f19601f82011682018060405250810190610d5e91906114ed565b610d6757600080fd5b6000604051806101a001604052806002805490508152602001878152602001866001600160a01b03168152602001856001600160a01b0316815260200184815260200160008152602001336001600160a01b03168152602001836001600160a01b03168152602001600081526020016000815260200160008152602001600081526020016000815250905080600360006002805490508152602001908152602001600020600082015181600001556020820151816001015560408201518160020160006101000a8154816001600160a01b0302191690836001600160a01b0316021790555060608201518160030160006101000a8154816001600160a01b0302191690836001600160a01b031602179055506080820151816004015560a0820151816005015560c08201518160060160006101000a8154816001600160a01b0302191690836001600160a01b0316021790555060e08201518160070160006101000a8154816001600160a01b0302191690836001600160a01b031602179055506101008201518160080155610120820151816009015561014082015181600a015561016082015181600b015561018082015181600c0155905050600281600001519080600181540180825580915050600190039060005260206000200160009091909190915055505050505050565b610f5e611188565b5060009081526003602081815260409283902083516101a0810185528154815260018201549281019290925260028101546001600160a01b0390811694830194909452918201548316606082015260048201546080820152600582015460a08201526006820154831660c0820152600782015490921660e083015260088101546101008301526009810154610120830152600a810154610140830152600b810154610160830152600c015461018082015290565b60025460609060009067ffffffffffffffff8111156110335761103361174d565b60405190808252806020026020018201604052801561106c57816020015b611059611188565b8152602001906001900390816110515790505b50905060005b60025481101561118257600360006002838154811061109357611093611763565b60009182526020808320909101548352828101939093526040918201902081516101a0810183528154815260018201549381019390935260028101546001600160a01b039081169284019290925260038101548216606084015260048101546080840152600581015460a08401526006810154821660c0840152600781015490911660e083015260088101546101008301526009810154610120830152600a810154610140830152600b810154610160830152600c0154610180820152825183908390811061116457611164611763565b6020026020010181905250808061117a90611779565b915050611072565b50919050565b604051806101a00160405280600081526020016000801916815260200160006001600160a01b0316815260200160006001600160a01b03168152602001600081526020016000815260200160006001600160a01b0316815260200160006001600160a01b0316815260200160008152602001600081526020016000815260200160008152602001600081525090565b803560ff8116811461122857600080fd5b919050565b60008060006060848603121561124257600080fd5b61124b84611217565b9250602084013561ffff8116811461126257600080fd5b929592945050506040919091013590565b8035600281900b811461122857600080fd5b600080600080600060a0868803121561129d57600080fd5b853594506112ad60208701611273565b93506112bb60408701611273565b94979396509394606081013594506080013592915050565b80356001600160a01b038116811461122857600080fd5b600080600080600060a0868803121561130257600080fd5b85359450611312602087016112d3565b9350611320604087016112d3565b925060608601359150611335608087016112d3565b90509295509295909350565b60006020828403121561135357600080fd5b5035919050565b8051825260208101516020830152604081015161138260408401826001600160a01b03169052565b50606081015161139d60608401826001600160a01b03169052565b506080810151608083015260a081015160a083015260c08101516113cc60c08401826001600160a01b03169052565b5060e08101516113e760e08401826001600160a01b03169052565b50610100818101519083015261012080820151908301526101408082015190830152610160808201519083015261018090810151910152565b6101a0810161142f828461135a565b92915050565b6020808252825182820181905260009190848201906040850190845b818110156114785761146483855161135a565b928401926101a09290920191600101611451565b50909695505050505050565b6000806000806080858703121561149a57600080fd5b843593506114aa60208601611217565b93969395505050506040820135916060013590565b634e487b7160e01b600052601160045260246000fd5b600082198211156114e8576114e86114bf565b500190565b6000602082840312156114ff57600080fd5b8151801515811461150f57600080fd5b9392505050565b6000806040838503121561152957600080fd5b505080516020909101519092909150565b60006020828403121561154c57600080fd5b5051919050565b60008160020b8360020b8061157857634e487b7160e01b600052601260045260246000fd5b627fffff19821460001982141615611592576115926114bf565b90059392505050565b60008160020b8360020b627fffff6000821360008413838304851182821616156115c7576115c76114bf565b627fffff1960008512828116878305871216156115e6576115e66114bf565b60008712925085820587128484161615611602576116026114bf565b85850587128184161615611618576116186114bf565b5050509290910295945050505050565b81516001600160a01b031681526101608101602083015161165460208401826001600160a01b03169052565b50604083015161166b604084018262ffffff169052565b506060830151611680606084018260020b9052565b506080830151611695608084018260020b9052565b5060a083015160a083015260c083015160c083015260e083015160e0830152610100808401518184015250610120808401516116db828501826001600160a01b03169052565b505061014092830151919092015290565b6000806000806080858703121561170257600080fd5b8451935060208501516001600160801b038116811461172057600080fd5b6040860151606090960151949790965092505050565b600082821015611748576117486114bf565b500390565b634e487b7160e01b600052604160045260246000fd5b634e487b7160e01b600052603260045260246000fd5b60006001820161178b5761178b6114bf565b506001019056fea2646970667358221220ded2e45f3613ff3ed43f1d466fa8e4f8aff50373ddea787c1a8880394de6d89264736f6c634300080f0033",
        "linkReferences": {}
    },
    "methodIdentifiers": {
        "aToken()": "a0c1f15e",
        "deposit(uint8,uint16,uint256)": "20778656",
        "getStrategies()": "b49a60bb",
        "getStrategyByID(uint256)": "8b03ea0e",
        "pool()": "16f0115b",
        "positionManager()": "791b98bc",
        "registerNodeRunner(uint256,uint8,bytes32,bytes32)": "de23a066",
        "registerStrategy(bytes32,address,address,uint256,address)": "8a67ccee",
        "runStrategy(uint256,int24,int24,uint256,uint256)": "35451154",
        "stakingToken()": "72f702f3",
        "swapRouter()": "c31c9c07",
        "usdc()": "3e413bee",
        "withdraw(uint8,uint16,uint256)": "5c407f8e"
    },
    "id": 29
}